{
  "_format": "hh-sol-artifact-1",
  "contractName": "SupplyChain",
  "sourceName": "contracts/SupplyChain.sol",
  "abi": [
    {
      "anonymous": false,
      "inputs": [
        {
          "indexed": true,
          "internalType": "uint256",
          "name": "id",
          "type": "uint256"
        },
        {
          "indexed": false,
          "internalType": "string",
          "name": "name",
          "type": "string"
        },
        {
          "indexed": true,
          "internalType": "address",
          "name": "owner",
          "type": "address"
        }
      ],
      "name": "ProductCreated",
      "type": "event"
    },
    {
      "anonymous": false,
      "inputs": [
        {
          "indexed": true,
          "internalType": "uint256",
          "name": "id",
          "type": "uint256"
        },
        {
          "indexed": true,
          "internalType": "address",
          "name": "oldOwner",
          "type": "address"
        },
        {
          "indexed": true,
          "internalType": "address",
          "name": "newOwner",
          "type": "address"
        }
      ],
      "name": "ProductTransferred",
      "type": "event"
    },
    {
      "inputs": [
        {
          "internalType": "string",
          "name": "_name",
          "type": "string"
        },
        {
          "internalType": "string",
          "name": "_description",
          "type": "string"
        }
      ],
      "name": "createProduct",
      "outputs": [],
      "stateMutability": "nonpayable",
      "type": "function"
    },
    {
      "inputs": [
        {
          "internalType": "uint256",
          "name": "_productId",
          "type": "uint256"
        }
      ],
      "name": "getProduct",
      "outputs": [
        {
          "internalType": "string",
          "name": "name",
          "type": "string"
        },
        {
          "internalType": "string",
          "name": "description",
          "type": "string"
        },
        {
          "internalType": "address",
          "name": "currentOwner",
          "type": "address"
        },
        {
          "internalType": "address[]",
          "name": "history",
          "type": "address[]"
        }
      ],
      "stateMutability": "view",
      "type": "function"
    },
    {
      "inputs": [],
      "name": "productCount",
      "outputs": [
        {
          "internalType": "uint256",
          "name": "",
          "type": "uint256"
        }
      ],
      "stateMutability": "view",
      "type": "function"
    },
    {
      "inputs": [
        {
          "internalType": "uint256",
          "name": "",
          "type": "uint256"
        }
      ],
      "name": "products",
      "outputs": [
        {
          "internalType": "uint256",
          "name": "id",
          "type": "uint256"
        },
        {
          "internalType": "string",
          "name": "name",
          "type": "string"
        },
        {
          "internalType": "string",
          "name": "description",
          "type": "string"
        },
        {
          "internalType": "address",
          "name": "currentOwner",
          "type": "address"
        }
      ],
      "stateMutability": "view",
      "type": "function"
    },
    {
      "inputs": [
        {
          "internalType": "uint256",
          "name": "_productId",
          "type": "uint256"
        },
        {
          "internalType": "address",
          "name": "_newOwner",
          "type": "address"
        }
      ],
      "name": "transferProduct",
      "outputs": [],
      "stateMutability": "nonpayable",
      "type": "function"
    }
  ],
  "bytecode": "0x608060405234801561001057600080fd5b506113c4806100206000396000f3fe608060405234801561001057600080fd5b50600436106100575760003560e01c80637acc0b201461005c57806387592bce1461008f578063b9db15b4146100ab578063e0f6ef87146100de578063e43059e5146100fc575b600080fd5b610076600480360381019061007191906109f8565b610118565b6040516100869493929190610b05565b60405180910390f35b6100a960048036038101906100a49190610c8d565b610278565b005b6100c560048036038101906100c091906109f8565b610473565b6040516100d59493929190610dc3565b60405180910390f35b6100e6610671565b6040516100f39190610e1d565b60405180910390f35b61011660048036038101906101119190610e64565b610677565b005b600060205280600052604060002060009150905080600001549080600101805461014190610ed3565b80601f016020809104026020016040519081016040528092919081815260200182805461016d90610ed3565b80156101ba5780601f1061018f576101008083540402835291602001916101ba565b820191906000526020600020905b81548152906001019060200180831161019d57829003601f168201915b5050505050908060020180546101cf90610ed3565b80601f01602080910402602001604051908101604052809291908181526020018280546101fb90610ed3565b80156102485780601f1061021d57610100808354040283529160200191610248565b820191906000526020600020905b81548152906001019060200180831161022b57829003601f168201915b5050505050908060030160009054906101000a900473ffffffffffffffffffffffffffffffffffffffff16905084565b6001600081548092919061028b90610f33565b91905055506000600167ffffffffffffffff8111156102ad576102ac610b62565b5b6040519080825280602002602001820160405280156102db5781602001602082028036833780820191505090505b50905033816000815181106102f3576102f2610f7b565b5b602002602001019073ffffffffffffffffffffffffffffffffffffffff16908173ffffffffffffffffffffffffffffffffffffffff16815250506040518060a0016040528060015481526020018481526020018381526020013373ffffffffffffffffffffffffffffffffffffffff16815260200182815250600080600154815260200190815260200160002060008201518160000155602082015181600101908161039f9190611156565b5060408201518160020190816103b59190611156565b5060608201518160030160006101000a81548173ffffffffffffffffffffffffffffffffffffffff021916908373ffffffffffffffffffffffffffffffffffffffff1602179055506080820151816004019080519060200190610419929190610907565b509050503373ffffffffffffffffffffffffffffffffffffffff166001547faf6ffb6277511513e7d579327cc1fc57f0266df2fb11a60b13487b8c9cd2c388856040516104669190611228565b60405180910390a3505050565b606080600060606000806000878152602001908152602001600020905080600101816002018260030160009054906101000a900473ffffffffffffffffffffffffffffffffffffffff16836004018380546104cd90610ed3565b80601f01602080910402602001604051908101604052809291908181526020018280546104f990610ed3565b80156105465780601f1061051b57610100808354040283529160200191610546565b820191906000526020600020905b81548152906001019060200180831161052957829003601f168201915b5050505050935082805461055990610ed3565b80601f016020809104026020016040519081016040528092919081815260200182805461058590610ed3565b80156105d25780601f106105a7576101008083540402835291602001916105d2565b820191906000526020600020905b8154815290600101906020018083116105b557829003601f168201915b505050505092508080548060200260200160405190810160405280929190818152602001828054801561065a57602002820191906000526020600020905b8160009054906101000a900473ffffffffffffffffffffffffffffffffffffffff1673ffffffffffffffffffffffffffffffffffffffff1681526020019060010190808311610610575b505050505090509450945094509450509193509193565b60015481565b6000806000848152602001908152602001600020905060008160000154036106d4576040517f08c379a00000000000000000000000000000000000000000000000000000000081526004016106cb90611296565b60405180910390fd5b8060030160009054906101000a900473ffffffffffffffffffffffffffffffffffffffff1673ffffffffffffffffffffffffffffffffffffffff163373ffffffffffffffffffffffffffffffffffffffff1614610766576040517f08c379a000000000000000000000000000000000000000000000000000000000815260040161075d90611302565b60405180910390fd5b600073ffffffffffffffffffffffffffffffffffffffff168273ffffffffffffffffffffffffffffffffffffffff16036107d5576040517f08c379a00000000000000000000000000000000000000000000000000000000081526004016107cc9061136e565b60405180910390fd5b60008160030160009054906101000a900473ffffffffffffffffffffffffffffffffffffffff169050828260030160006101000a81548173ffffffffffffffffffffffffffffffffffffffff021916908373ffffffffffffffffffffffffffffffffffffffff16021790555081600401839080600181540180825580915050600190039060005260206000200160009091909190916101000a81548173ffffffffffffffffffffffffffffffffffffffff021916908373ffffffffffffffffffffffffffffffffffffffff1602179055508273ffffffffffffffffffffffffffffffffffffffff168173ffffffffffffffffffffffffffffffffffffffff16857fcef86d37ba3dc1d682967cde44d8050488734bf53166725b220b4d2e515e9e9360405160405180910390a450505050565b828054828255906000526020600020908101928215610980579160200282015b8281111561097f5782518260006101000a81548173ffffffffffffffffffffffffffffffffffffffff021916908373ffffffffffffffffffffffffffffffffffffffff16021790555091602001919060010190610927565b5b50905061098d9190610991565b5090565b5b808211156109aa576000816000905550600101610992565b5090565b6000604051905090565b600080fd5b600080fd5b6000819050919050565b6109d5816109c2565b81146109e057600080fd5b50565b6000813590506109f2816109cc565b92915050565b600060208284031215610a0e57610a0d6109b8565b5b6000610a1c848285016109e3565b91505092915050565b610a2e816109c2565b82525050565b600081519050919050565b600082825260208201905092915050565b60005b83811015610a6e578082015181840152602081019050610a53565b60008484015250505050565b6000601f19601f8301169050919050565b6000610a9682610a34565b610aa08185610a3f565b9350610ab0818560208601610a50565b610ab981610a7a565b840191505092915050565b600073ffffffffffffffffffffffffffffffffffffffff82169050919050565b6000610aef82610ac4565b9050919050565b610aff81610ae4565b82525050565b6000608082019050610b1a6000830187610a25565b8181036020830152610b2c8186610a8b565b90508181036040830152610b408185610a8b565b9050610b4f6060830184610af6565b95945050505050565b600080fd5b600080fd5b7f4e487b7100000000000000000000000000000000000000000000000000000000600052604160045260246000fd5b610b9a82610a7a565b810181811067ffffffffffffffff82111715610bb957610bb8610b62565b5b80604052505050565b6000610bcc6109ae565b9050610bd88282610b91565b919050565b600067ffffffffffffffff821115610bf857610bf7610b62565b5b610c0182610a7a565b9050602081019050919050565b82818337600083830152505050565b6000610c30610c2b84610bdd565b610bc2565b905082815260208101848484011115610c4c57610c4b610b5d565b5b610c57848285610c0e565b509392505050565b600082601f830112610c7457610c73610b58565b5b8135610c84848260208601610c1d565b91505092915050565b60008060408385031215610ca457610ca36109b8565b5b600083013567ffffffffffffffff811115610cc257610cc16109bd565b5b610cce85828601610c5f565b925050602083013567ffffffffffffffff811115610cef57610cee6109bd565b5b610cfb85828601610c5f565b9150509250929050565b600081519050919050565b600082825260208201905092915050565b6000819050602082019050919050565b610d3a81610ae4565b82525050565b6000610d4c8383610d31565b60208301905092915050565b6000602082019050919050565b6000610d7082610d05565b610d7a8185610d10565b9350610d8583610d21565b8060005b83811015610db6578151610d9d8882610d40565b9750610da883610d58565b925050600181019050610d89565b5085935050505092915050565b60006080820190508181036000830152610ddd8187610a8b565b90508181036020830152610df18186610a8b565b9050610e006040830185610af6565b8181036060830152610e128184610d65565b905095945050505050565b6000602082019050610e326000830184610a25565b92915050565b610e4181610ae4565b8114610e4c57600080fd5b50565b600081359050610e5e81610e38565b92915050565b60008060408385031215610e7b57610e7a6109b8565b5b6000610e89858286016109e3565b9250506020610e9a85828601610e4f565b9150509250929050565b7f4e487b7100000000000000000000000000000000000000000000000000000000600052602260045260246000fd5b60006002820490506001821680610eeb57607f821691505b602082108103610efe57610efd610ea4565b5b50919050565b7f4e487b7100000000000000000000000000000000000000000000000000000000600052601160045260246000fd5b6000610f3e826109c2565b91507fffffffffffffffffffffffffffffffffffffffffffffffffffffffffffffffff8203610f7057610f6f610f04565b5b600182019050919050565b7f4e487b7100000000000000000000000000000000000000000000000000000000600052603260045260246000fd5b60008190508160005260206000209050919050565b60006020601f8301049050919050565b600082821b905092915050565b60006008830261100c7fffffffffffffffffffffffffffffffffffffffffffffffffffffffffffffffff82610fcf565b6110168683610fcf565b95508019841693508086168417925050509392505050565b6000819050919050565b600061105361104e611049846109c2565b61102e565b6109c2565b9050919050565b6000819050919050565b61106d83611038565b6110816110798261105a565b848454610fdc565b825550505050565b600090565b611096611089565b6110a1818484611064565b505050565b5b818110156110c5576110ba60008261108e565b6001810190506110a7565b5050565b601f82111561110a576110db81610faa565b6110e484610fbf565b810160208510156110f3578190505b6111076110ff85610fbf565b8301826110a6565b50505b505050565b600082821c905092915050565b600061112d6000198460080261110f565b1980831691505092915050565b6000611146838361111c565b9150826002028217905092915050565b61115f82610a34565b67ffffffffffffffff81111561117857611177610b62565b5b6111828254610ed3565b61118d8282856110c9565b600060209050601f8311600181146111c057600084156111ae578287015190505b6111b8858261113a565b865550611220565b601f1984166111ce86610faa565b60005b828110156111f6578489015182556001820191506020850194506020810190506111d1565b86831015611213578489015161120f601f89168261111c565b8355505b6001600288020188555050505b505050505050565b600060208201905081810360008301526112428184610a8b565b905092915050565b7f50726f6475637420646f6573206e6f7420657869737400000000000000000000600082015250565b6000611280601683610a3f565b915061128b8261124a565b602082019050919050565b600060208201905081810360008301526112af81611273565b9050919050565b7f4f6e6c79206f776e65722063616e207472616e73666572000000000000000000600082015250565b60006112ec601783610a3f565b91506112f7826112b6565b602082019050919050565b6000602082019050818103600083015261131b816112df565b9050919050565b7f496e76616c6964206e6577206f776e6572000000000000000000000000000000600082015250565b6000611358601183610a3f565b915061136382611322565b602082019050919050565b600060208201905081810360008301526113878161134b565b905091905056fea2646970667358221220382d960b34b66b0c65389465664fc82e53a57dab8a04af44f39131229292cc7e64736f6c63430008180033",
  "linkReferences": {},
  "deployedLinkReferences": {}
}