{
  "_format": "hh-sol-artifact-1",
  "contractName": "SupplyChain",
  "sourceName": "contracts/SupplyChain.sol",
  "abi": [
    {
      "anonymous": false,
      "inputs": [
        {
          "indexed": true,
          "internalType": "uint256",
          "name": "id",
          "type": "uint256"
        },
        {
          "indexed": false,
          "internalType": "string",
          "name": "name",
          "type": "string"
        },
        {
          "indexed": true,
          "internalType": "address",
          "name": "owner",
          "type": "address"
        }
      ],
      "name": "ProductCreated",
      "type": "event"
    },
    {
      "anonymous": false,
      "inputs": [
        {
          "indexed": true,
          "internalType": "uint256",
          "name": "id",
          "type": "uint256"
        },
        {
          "indexed": true,
          "internalType": "address",
          "name": "actor",
          "type": "address"
        }
      ],
      "name": "ProductDeactivated",
      "type": "event"
    },
    {
      "anonymous": false,
      "inputs": [
        {
          "indexed": true,
          "internalType": "uint256",
          "name": "id",
          "type": "uint256"
        },
        {
          "indexed": true,
          "internalType": "address",
          "name": "from",
          "type": "address"
        },
        {
          "indexed": true,
          "internalType": "address",
          "name": "to",
          "type": "address"
        },
        {
          "indexed": false,
          "internalType": "string",
          "name": "details",
          "type": "string"
        }
      ],
      "name": "ProductTransferred",
      "type": "event"
    },
    {
      "anonymous": false,
      "inputs": [
        {
          "indexed": true,
          "internalType": "uint256",
          "name": "id",
          "type": "uint256"
        },
        {
          "indexed": false,
          "internalType": "string",
          "name": "details",
          "type": "string"
        },
        {
          "indexed": true,
          "internalType": "address",
          "name": "actor",
          "type": "address"
        }
      ],
      "name": "ProductUpdated",
      "type": "event"
    },
    {
      "inputs": [
        {
          "internalType": "string",
          "name": "_name",
          "type": "string"
        },
        {
          "internalType": "string",
          "name": "_description",
          "type": "string"
        },
        {
          "internalType": "string",
          "name": "_origin",
          "type": "string"
        }
      ],
      "name": "createProduct",
      "outputs": [
        {
          "internalType": "uint256",
          "name": "",
          "type": "uint256"
        }
      ],
      "stateMutability": "nonpayable",
      "type": "function"
    },
    {
      "inputs": [
        {
          "internalType": "uint256",
          "name": "_productId",
          "type": "uint256"
        }
      ],
      "name": "deactivateProduct",
      "outputs": [],
      "stateMutability": "nonpayable",
      "type": "function"
    },
    {
      "inputs": [
        {
          "internalType": "uint256",
          "name": "_productId",
          "type": "uint256"
        }
      ],
      "name": "getProduct",
      "outputs": [
        {
          "internalType": "uint256",
          "name": "id",
          "type": "uint256"
        },
        {
          "internalType": "string",
          "name": "name",
          "type": "string"
        },
        {
          "internalType": "string",
          "name": "description",
          "type": "string"
        },
        {
          "internalType": "string",
          "name": "origin",
          "type": "string"
        },
        {
          "internalType": "address",
          "name": "currentOwner",
          "type": "address"
        },
        {
          "internalType": "bool",
          "name": "isActive",
          "type": "bool"
        }
      ],
      "stateMutability": "view",
      "type": "function"
    },
    {
      "inputs": [
        {
          "internalType": "uint256",
          "name": "_productId",
          "type": "uint256"
        }
      ],
      "name": "getProductHistory",
      "outputs": [
        {
          "components": [
            {
              "internalType": "string",
              "name": "action",
              "type": "string"
            },
            {
              "internalType": "string",
              "name": "details",
              "type": "string"
            },
            {
              "internalType": "address",
              "name": "actor",
              "type": "address"
            },
            {
              "internalType": "uint256",
              "name": "timestamp",
              "type": "uint256"
            }
          ],
          "internalType": "struct SupplyChain.History[]",
          "name": "",
          "type": "tuple[]"
        }
      ],
      "stateMutability": "view",
      "type": "function"
    },
    {
      "inputs": [
        {
          "internalType": "uint256",
          "name": "",
          "type": "uint256"
        }
      ],
      "name": "products",
      "outputs": [
        {
          "internalType": "uint256",
          "name": "id",
          "type": "uint256"
        },
        {
          "internalType": "string",
          "name": "name",
          "type": "string"
        },
        {
          "internalType": "string",
          "name": "description",
          "type": "string"
        },
        {
          "internalType": "string",
          "name": "origin",
          "type": "string"
        },
        {
          "internalType": "address",
          "name": "currentOwner",
          "type": "address"
        },
        {
          "internalType": "bool",
          "name": "isActive",
          "type": "bool"
        }
      ],
      "stateMutability": "view",
      "type": "function"
    },
    {
      "inputs": [
        {
          "internalType": "uint256",
          "name": "_productId",
          "type": "uint256"
        },
        {
          "internalType": "address",
          "name": "_newOwner",
          "type": "address"
        },
        {
          "internalType": "string",
          "name": "_details",
          "type": "string"
        }
      ],
      "name": "transferProduct",
      "outputs": [],
      "stateMutability": "nonpayable",
      "type": "function"
    },
    {
      "inputs": [
        {
          "internalType": "uint256",
          "name": "_productId",
          "type": "uint256"
        },
        {
          "internalType": "string",
          "name": "_details",
          "type": "string"
        }
      ],
      "name": "updateProduct",
      "outputs": [],
      "stateMutability": "nonpayable",
      "type": "function"
    }
  ],
  "bytecode": "0x608060405234801561001057600080fd5b5061210f806100206000396000f3fe608060405234801561001057600080fd5b506004361061007d5760003560e01c80637acc0b201161005b5780637acc0b20146100ea578063b9db15b41461011f578063d768468b14610154578063fd77e5de146101845761007d565b8063293bb2c114610082578063522ae8b61461009e57806357a096a1146100ba575b600080fd5b61009c60048036038101906100979190611503565b6101a0565b005b6100b860048036038101906100b39190611572565b6104fa565b005b6100d460048036038101906100cf91906115ce565b610760565b6040516100e191906117c4565b60405180910390f35b61010460048036038101906100ff91906115ce565b6109aa565b60405161011696959493929190611869565b60405180910390f35b610139600480360381019061013491906115ce565b610bab565b60405161014b96959493929190611869565b60405180910390f35b61016e600480360381019061016991906118df565b610e1f565b60405161017b9190611986565b60405180910390f35b61019e600480360381019061019991906115ce565b611086565b005b60006001600085815260200190815260200160002090508060040160149054906101000a900460ff16610208576040517f08c379a00000000000000000000000000000000000000000000000000000000081526004016101ff906119ed565b60405180910390fd5b8060040160009054906101000a900473ffffffffffffffffffffffffffffffffffffffff1673ffffffffffffffffffffffffffffffffffffffff163373ffffffffffffffffffffffffffffffffffffffff161461029a576040517f08c379a000000000000000000000000000000000000000000000000000000000815260040161029190611a59565b60405180910390fd5b600073ffffffffffffffffffffffffffffffffffffffff168373ffffffffffffffffffffffffffffffffffffffff1603610309576040517f08c379a000000000000000000000000000000000000000000000000000000000815260040161030090611ac5565b60405180910390fd5b60008160040160009054906101000a900473ffffffffffffffffffffffffffffffffffffffff169050838260040160006101000a81548173ffffffffffffffffffffffffffffffffffffffff021916908373ffffffffffffffffffffffffffffffffffffffff1602179055508160050160405180608001604052806040518060400160405280600b81526020017f5472616e7366657272656400000000000000000000000000000000000000000081525081526020018581526020013373ffffffffffffffffffffffffffffffffffffffff16815260200142815250908060018154018082558091505060019003906000526020600020906004020160009091909190915060008201518160000190816104239190611cf1565b5060208201518160010190816104399190611cf1565b5060408201518160020160006101000a81548173ffffffffffffffffffffffffffffffffffffffff021916908373ffffffffffffffffffffffffffffffffffffffff1602179055506060820151816003015550508373ffffffffffffffffffffffffffffffffffffffff168173ffffffffffffffffffffffffffffffffffffffff16867f7b9954163fa07d871126e4bf9e86dd39a340304d4ffa6a8f7b5eae106152ee03866040516104eb9190611dc3565b60405180910390a45050505050565b60006001600084815260200190815260200160002090508060040160149054906101000a900460ff16610562576040517f08c379a0000000000000000000000000000000000000000000000000000000008152600401610559906119ed565b60405180910390fd5b8060040160009054906101000a900473ffffffffffffffffffffffffffffffffffffffff1673ffffffffffffffffffffffffffffffffffffffff163373ffffffffffffffffffffffffffffffffffffffff16146105f4576040517f08c379a00000000000000000000000000000000000000000000000000000000081526004016105eb90611e31565b60405180910390fd5b8060050160405180608001604052806040518060400160405280600781526020017f557064617465640000000000000000000000000000000000000000000000000081525081526020018481526020013373ffffffffffffffffffffffffffffffffffffffff16815260200142815250908060018154018082558091505060019003906000526020600020906004020160009091909190915060008201518160000190816106a29190611cf1565b5060208201518160010190816106b89190611cf1565b5060408201518160020160006101000a81548173ffffffffffffffffffffffffffffffffffffffff021916908373ffffffffffffffffffffffffffffffffffffffff1602179055506060820151816003015550503373ffffffffffffffffffffffffffffffffffffffff16837f6599e0074698ba3478733fbb2dac5ef719075c18d140e6c6ad768d8f970b22c5846040516107539190611dc3565b60405180910390a3505050565b606060008211801561077457506000548211155b6107b3576040517f08c379a00000000000000000000000000000000000000000000000000000000081526004016107aa90611e9d565b60405180910390fd5b60016000838152602001908152602001600020600501805480602002602001604051908101604052809291908181526020016000905b8282101561099f578382906000526020600020906004020160405180608001604052908160008201805461081c90611b14565b80601f016020809104026020016040519081016040528092919081815260200182805461084890611b14565b80156108955780601f1061086a57610100808354040283529160200191610895565b820191906000526020600020905b81548152906001019060200180831161087857829003601f168201915b505050505081526020016001820180546108ae90611b14565b80601f01602080910402602001604051908101604052809291908181526020018280546108da90611b14565b80156109275780601f106108fc57610100808354040283529160200191610927565b820191906000526020600020905b81548152906001019060200180831161090a57829003601f168201915b505050505081526020016002820160009054906101000a900473ffffffffffffffffffffffffffffffffffffffff1673ffffffffffffffffffffffffffffffffffffffff1673ffffffffffffffffffffffffffffffffffffffff168152602001600382015481525050815260200190600101906107e9565b505050509050919050565b60016020528060005260406000206000915090508060000154908060010180546109d390611b14565b80601f01602080910402602001604051908101604052809291908181526020018280546109ff90611b14565b8015610a4c5780601f10610a2157610100808354040283529160200191610a4c565b820191906000526020600020905b815481529060010190602001808311610a2f57829003601f168201915b505050505090806002018054610a6190611b14565b80601f0160208091040260200160405190810160405280929190818152602001828054610a8d90611b14565b8015610ada5780601f10610aaf57610100808354040283529160200191610ada565b820191906000526020600020905b815481529060010190602001808311610abd57829003601f168201915b505050505090806003018054610aef90611b14565b80601f0160208091040260200160405190810160405280929190818152602001828054610b1b90611b14565b8015610b685780601f10610b3d57610100808354040283529160200191610b68565b820191906000526020600020905b815481529060010190602001808311610b4b57829003601f168201915b5050505050908060040160009054906101000a900473ffffffffffffffffffffffffffffffffffffffff16908060040160149054906101000a900460ff16905086565b60006060806060600080600087118015610bc757506000548711155b610c06576040517f08c379a0000000000000000000000000000000000000000000000000000000008152600401610bfd90611e9d565b60405180910390fd5b600060016000898152602001908152602001600020905080600001548160010182600201836003018460040160009054906101000a900473ffffffffffffffffffffffffffffffffffffffff168560040160149054906101000a900460ff16848054610c7190611b14565b80601f0160208091040260200160405190810160405280929190818152602001828054610c9d90611b14565b8015610cea5780601f10610cbf57610100808354040283529160200191610cea565b820191906000526020600020905b815481529060010190602001808311610ccd57829003601f168201915b50505050509450838054610cfd90611b14565b80601f0160208091040260200160405190810160405280929190818152602001828054610d2990611b14565b8015610d765780601f10610d4b57610100808354040283529160200191610d76565b820191906000526020600020905b815481529060010190602001808311610d5957829003601f168201915b50505050509350828054610d8990611b14565b80601f0160208091040260200160405190810160405280929190818152602001828054610db590611b14565b8015610e025780601f10610dd757610100808354040283529160200191610e02565b820191906000526020600020905b815481529060010190602001808311610de557829003601f168201915b505050505092509650965096509650965096505091939550919395565b6000806000815480929190610e3390611eec565b9190505550600080549050600060016000838152602001908152602001600020905081816000018190555085816001019081610e6f9190611cf1565b5084816002019081610e819190611cf1565b5083816003019081610e939190611cf1565b50338160040160006101000a81548173ffffffffffffffffffffffffffffffffffffffff021916908373ffffffffffffffffffffffffffffffffffffffff16021790555060018160040160146101000a81548160ff0219169083151502179055508060050160405180608001604052806040518060400160405280600781526020017f4372656174656400000000000000000000000000000000000000000000000000815250815260200186604051602001610f4f9190611fbc565b60405160208183030381529060405281526020013373ffffffffffffffffffffffffffffffffffffffff1681526020014281525090806001815401808255809150506001900390600052602060002090600402016000909190919091506000820151816000019081610fc19190611cf1565b506020820151816001019081610fd79190611cf1565b5060408201518160020160006101000a81548173ffffffffffffffffffffffffffffffffffffffff021916908373ffffffffffffffffffffffffffffffffffffffff1602179055506060820151816003015550503373ffffffffffffffffffffffffffffffffffffffff16827faf6ffb6277511513e7d579327cc1fc57f0266df2fb11a60b13487b8c9cd2c388886040516110729190611dc3565b60405180910390a381925050509392505050565b60006001600083815260200190815260200160002090508060040160149054906101000a900460ff166110ee576040517f08c379a00000000000000000000000000000000000000000000000000000000081526004016110e59061202a565b60405180910390fd5b8060040160009054906101000a900473ffffffffffffffffffffffffffffffffffffffff1673ffffffffffffffffffffffffffffffffffffffff163373ffffffffffffffffffffffffffffffffffffffff1614611180576040517f08c379a000000000000000000000000000000000000000000000000000000000815260040161117790612096565b60405180910390fd5b60008160040160146101000a81548160ff0219169083151502179055508060050160405180608001604052806040518060400160405280600b81526020017f446561637469766174656400000000000000000000000000000000000000000081525081526020016040518060600160405280602381526020016120b76023913981526020013373ffffffffffffffffffffffffffffffffffffffff16815260200142815250908060018154018082558091505060019003906000526020600020906004020160009091909190915060008201518160000190816112639190611cf1565b5060208201518160010190816112799190611cf1565b5060408201518160020160006101000a81548173ffffffffffffffffffffffffffffffffffffffff021916908373ffffffffffffffffffffffffffffffffffffffff1602179055506060820151816003015550503373ffffffffffffffffffffffffffffffffffffffff16827f3ce9d5d4c93354e5800c5250d08d814fbbe096fa7c05ccb03d2a8b09b7a4888d60405160405180910390a35050565b6000604051905090565b600080fd5b600080fd5b6000819050919050565b61133c81611329565b811461134757600080fd5b50565b60008135905061135981611333565b92915050565b600073ffffffffffffffffffffffffffffffffffffffff82169050919050565b600061138a8261135f565b9050919050565b61139a8161137f565b81146113a557600080fd5b50565b6000813590506113b781611391565b92915050565b600080fd5b600080fd5b6000601f19601f8301169050919050565b7f4e487b7100000000000000000000000000000000000000000000000000000000600052604160045260246000fd5b611410826113c7565b810181811067ffffffffffffffff8211171561142f5761142e6113d8565b5b80604052505050565b6000611442611315565b905061144e8282611407565b919050565b600067ffffffffffffffff82111561146e5761146d6113d8565b5b611477826113c7565b9050602081019050919050565b82818337600083830152505050565b60006114a66114a184611453565b611438565b9050828152602081018484840111156114c2576114c16113c2565b5b6114cd848285611484565b509392505050565b600082601f8301126114ea576114e96113bd565b5b81356114fa848260208601611493565b91505092915050565b60008060006060848603121561151c5761151b61131f565b5b600061152a8682870161134a565b935050602061153b868287016113a8565b925050604084013567ffffffffffffffff81111561155c5761155b611324565b5b611568868287016114d5565b9150509250925092565b600080604083850312156115895761158861131f565b5b60006115978582860161134a565b925050602083013567ffffffffffffffff8111156115b8576115b7611324565b5b6115c4858286016114d5565b9150509250929050565b6000602082840312156115e4576115e361131f565b5b60006115f28482850161134a565b91505092915050565b600081519050919050565b600082825260208201905092915050565b6000819050602082019050919050565b600081519050919050565b600082825260208201905092915050565b60005b83811015611661578082015181840152602081019050611646565b60008484015250505050565b600061167882611627565b6116828185611632565b9350611692818560208601611643565b61169b816113c7565b840191505092915050565b6116af8161137f565b82525050565b6116be81611329565b82525050565b600060808301600083015184820360008601526116e1828261166d565b915050602083015184820360208601526116fb828261166d565b915050604083015161171060408601826116a6565b50606083015161172360608601826116b5565b508091505092915050565b600061173a83836116c4565b905092915050565b6000602082019050919050565b600061175a826115fb565b6117648185611606565b93508360208202850161177685611617565b8060005b858110156117b25784840389528151611793858261172e565b945061179e83611742565b925060208a0199505060018101905061177a565b50829750879550505050505092915050565b600060208201905081810360008301526117de818461174f565b905092915050565b6117ef81611329565b82525050565b600082825260208201905092915050565b600061181182611627565b61181b81856117f5565b935061182b818560208601611643565b611834816113c7565b840191505092915050565b6118488161137f565b82525050565b60008115159050919050565b6118638161184e565b82525050565b600060c08201905061187e60008301896117e6565b81810360208301526118908188611806565b905081810360408301526118a48187611806565b905081810360608301526118b88186611806565b90506118c7608083018561183f565b6118d460a083018461185a565b979650505050505050565b6000806000606084860312156118f8576118f761131f565b5b600084013567ffffffffffffffff81111561191657611915611324565b5b611922868287016114d5565b935050602084013567ffffffffffffffff81111561194357611942611324565b5b61194f868287016114d5565b925050604084013567ffffffffffffffff8111156119705761196f611324565b5b61197c868287016114d5565b9150509250925092565b600060208201905061199b60008301846117e6565b92915050565b7f50726f64756374206973206e6f74206163746976650000000000000000000000600082015250565b60006119d76015836117f5565b91506119e2826119a1565b602082019050919050565b60006020820190508181036000830152611a06816119ca565b9050919050565b7f4f6e6c79206f776e65722063616e207472616e73666572000000000000000000600082015250565b6000611a436017836117f5565b9150611a4e82611a0d565b602082019050919050565b60006020820190508181036000830152611a7281611a36565b9050919050565b7f496e76616c6964206e6577206f776e6572000000000000000000000000000000600082015250565b6000611aaf6011836117f5565b9150611aba82611a79565b602082019050919050565b60006020820190508181036000830152611ade81611aa2565b9050919050565b7f4e487b7100000000000000000000000000000000000000000000000000000000600052602260045260246000fd5b60006002820490506001821680611b2c57607f821691505b602082108103611b3f57611b3e611ae5565b5b50919050565b60008190508160005260206000209050919050565b60006020601f8301049050919050565b600082821b905092915050565b600060088302611ba77fffffffffffffffffffffffffffffffffffffffffffffffffffffffffffffffff82611b6a565b611bb18683611b6a565b95508019841693508086168417925050509392505050565b6000819050919050565b6000611bee611be9611be484611329565b611bc9565b611329565b9050919050565b6000819050919050565b611c0883611bd3565b611c1c611c1482611bf5565b848454611b77565b825550505050565b600090565b611c31611c24565b611c3c818484611bff565b505050565b5b81811015611c6057611c55600082611c29565b600181019050611c42565b5050565b601f821115611ca557611c7681611b45565b611c7f84611b5a565b81016020851015611c8e578190505b611ca2611c9a85611b5a565b830182611c41565b50505b505050565b600082821c905092915050565b6000611cc860001984600802611caa565b1980831691505092915050565b6000611ce18383611cb7565b9150826002028217905092915050565b611cfa82611627565b67ffffffffffffffff811115611d1357611d126113d8565b5b611d1d8254611b14565b611d28828285611c64565b600060209050601f831160018114611d5b5760008415611d49578287015190505b611d538582611cd5565b865550611dbb565b601f198416611d6986611b45565b60005b82811015611d9157848901518255600182019150602085019450602081019050611d6c565b86831015611dae5784890151611daa601f891682611cb7565b8355505b6001600288020188555050505b505050505050565b60006020820190508181036000830152611ddd8184611806565b905092915050565b7f4f6e6c79206f776e65722063616e207570646174650000000000000000000000600082015250565b6000611e1b6015836117f5565b9150611e2682611de5565b602082019050919050565b60006020820190508181036000830152611e4a81611e0e565b9050919050565b7f50726f6475637420646f6573206e6f7420657869737400000000000000000000600082015250565b6000611e876016836117f5565b9150611e9282611e51565b602082019050919050565b60006020820190508181036000830152611eb681611e7a565b9050919050565b7f4e487b7100000000000000000000000000000000000000000000000000000000600052601160045260246000fd5b6000611ef782611329565b91507fffffffffffffffffffffffffffffffffffffffffffffffffffffffffffffffff8203611f2957611f28611ebd565b5b600182019050919050565b600081905092915050565b7f4f726967696e3a20000000000000000000000000000000000000000000000000600082015250565b6000611f75600883611f34565b9150611f8082611f3f565b600882019050919050565b6000611f9682611627565b611fa08185611f34565b9350611fb0818560208601611643565b80840191505092915050565b6000611fc782611f68565b9150611fd38284611f8b565b915081905092915050565b7f50726f6475637420697320616c726561647920696e6163746976650000000000600082015250565b6000612014601b836117f5565b915061201f82611fde565b602082019050919050565b6000602082019050818103600083015261204381612007565b9050919050565b7f4f6e6c79206f776e65722063616e206465616374697661746500000000000000600082015250565b60006120806019836117f5565b915061208b8261204a565b602082019050919050565b600060208201905081810360008301526120af81612073565b905091905056fe50726f64756374206d61726b656420617320696e6163746976652f6172636869766564a2646970667358221220f8b72ce505024db1b4f1a2c82cec03293054f67875fa9c58557f14b8de598d9e64736f6c63430008180033",
  "linkReferences": {},
  "deployedLinkReferences": {}
}